{
    "contractName": "pdfToHash",
    "abi": [
        {
            "inputs": [
                {
                    "internalType": "uint256",
                    "name": "_date",
                    "type": "uint256"
                },
                {
                    "internalType": "string",
                    "name": "_hexchain",
                    "type": "string"
                },
                {
                    "internalType": "uint256",
                    "name": "_bloque",
                    "type": "uint256"
                }
            ],
            "name": "createToHash",
            "outputs": [],
            "stateMutability": "nonpayable",
            "type": "function"
        },
        {
            "inputs": [
                {
                    "internalType": "uint256",
                    "name": "",
                    "type": "uint256"
                }
            ],
            "name": "envolt",
            "outputs": [
                {
                    "internalType": "uint256",
                    "name": "date",
                    "type": "uint256"
                },
                {
                    "internalType": "string",
                    "name": "hexchain",
                    "type": "string"
                },
                {
                    "internalType": "uint256",
                    "name": "bloque",
                    "type": "uint256"
                }
            ],
            "stateMutability": "view",
            "type": "function"
        }
    ],
    "bytecode": "608060405234801561001057600080fd5b50610443806100206000396000f3fe608060405234801561001057600080fd5b50600436106100365760003560e01c80632aa6fe241461003b5780636a4b7b0b14610050575b600080fd5b61004e610049366004610290565b61007b565b005b61006361005e366004610354565b610123565b6040516100729392919061036d565b60405180910390f35b506040805160608101825242808252602080830185815243948401859052600180548082018255600091909152845160039091027fb10e2d527612073b26eecdfd717e6a320cf44b4afac2b0732d9fcbe2b7fa0cf68101918255915180519498509093610111937fb10e2d527612073b26eecdfd717e6a320cf44b4afac2b0732d9fcbe2b7fa0cf79093019291909101906101e1565b50604082015181600201555050505050565b6001818154811061013357600080fd5b60009182526020909120600390910201805460018201805491935090610158906103d2565b80601f0160208091040260200160405190810160405280929190818152602001828054610184906103d2565b80156101d15780601f106101a6576101008083540402835291602001916101d1565b820191906000526020600020905b8154815290600101906020018083116101b457829003601f168201915b5050505050908060020154905083565b8280546101ed906103d2565b90600052602060002090601f01602090048101928261020f5760008555610255565b82601f1061022857805160ff1916838001178555610255565b82800160010185558215610255579182015b8281111561025557825182559160200191906001019061023a565b50610261929150610265565b5090565b5b808211156102615760008155600101610266565b634e487b7160e01b600052604160045260246000fd5b6000806000606084860312156102a557600080fd5b83359250602084013567ffffffffffffffff808211156102c457600080fd5b818601915086601f8301126102d857600080fd5b8135818111156102ea576102ea61027a565b604051601f8201601f19908116603f011681019083821181831017156103125761031261027a565b8160405282815289602084870101111561032b57600080fd5b826020860160208301376000602084830101528096505050505050604084013590509250925092565b60006020828403121561036657600080fd5b5035919050565b83815260006020606081840152845180606085015260005b818110156103a157868101830151858201608001528201610385565b818111156103b3576000608083870101525b5060408401949094525050601f91909101601f19160160800192915050565b600181811c908216806103e657607f821691505b6020821081141561040757634e487b7160e01b600052602260045260246000fd5b5091905056fea264697066735822122099a3f3b2f537acce7fa7ad062d6d6b0c9fb16b3e9ea62a09343e5cdfee15c6b764736f6c634300080a0033",
    "sourcePath": "c:/Users/Marianelas/Desktop/TECNOGADOS/pdfToHash.sol",
    "compiler": {
        "name": "solc",
        "version": "0.8.10+commit.fc410830"
    },
    "functionHashes": {
        "createToHash(uint256,string,uint256)": "2aa6fe24",
        "envolt(uint256)": "6a4b7b0b"
    },
    "gasEstimates": {
        "creation": {
            "codeDepositCost": "218200",
            "executionCost": "263",
            "totalCost": "218463"
        },
        "external": {
            "createToHash(uint256,string,uint256)": "infinite",
            "envolt(uint256)": "infinite"
        }
    }
}